:020000040800F2
:100000008006002089010008910100089301000882
:100010009501000897010008990100080000000000
:100020000000000000000000000000009B0100082C
:100030009D010008000000009F010008090A000857
:10004000A3010008A3010008A3010008A301000800
:10005000A3010008A3010008A3010008A3010008F0
:10006000A3010008A3010008A3010008A3010008E0
:10007000A3010008A3010008A3010008A3010008D0
:10008000A3010008A3010008A3010008A3010008C0
:10009000A3010008A3010008A3010008A3010008B0
:1000A000A3010008A3010008A3010008A3010008A0
:1000B000A3010008A3010008A3010008A301000890
:1000C000A3010008A3010008A3010008A301000880
:1000D000A3010008A3010008A3010008A301000870
:1000E000A3010008A3010008A301000800F002F822
:1000F00000F03AF80AA090E8000C82448344AAF188
:100100000107DA4501D100F02FF8AFF2090EBAE885
:100110000F0013F0010F18BFFB1A43F0010318473B
:100120002410000044100000103A24BF78C878C1A1
:10013000FAD8520724BF30C830C144BF04680C60ED
:10014000704700000023002400250026103A28BF35
:1001500078C1FBD8520728BF30C148BF0B60704739
:100160001FB51FBD10B510BD00F031F81146FFF7E7
:10017000F7FF00F0D7FC00F04FF803B4FFF7F2FFF1
:1001800003BC00F057F800000948804709480047C1
:10019000FEE7FEE7FEE7FEE7FEE7FEE7FEE7FEE737
:1001A000FEE7FEE704480549054A064B7047000094
:1001B000C50A0008ED00000880000020800600202D
:1001C000800200208002002070477047704775460B
:1001D00000F02CF8AE4605006946534620F00700B3
:1001E000854618B020B5FFF7DDFFBDE820404FF091
:1001F00000064FF000074FF000084FF0000B21F011
:100200000701AC46ACE8C009ACE8C009ACE8C009DD
:10021000ACE8C0098D46704710B50446AFF30080C6
:100220002046BDE81040FFF7A8BF00000048704717
:100230001C00002001491820ABBEFEE7260002008A
:100240007047000010B5052301220021084800F086
:1002500095F80121064800F0EDF800BF022104489E
:1002600000F05BF80028F9D0014800F052F810BD0A
:100270000024014021B1826842F00102826003E063
:10028000826822F0010282607047000000B585B0EC
:100290000121480200F034FB002000908DF804009A
:1002A00001208DF805004FF46020029001210D48D7
:1002B00000F01AF80020039001208DF81000694624
:1002C000084800F033F801210648FFF7D3FF05483E
:1002D00000F0BBF800BF034800F011F80028FAD185
:1002E00005B000BD0024014021B1826842F48012B3
:1002F000826003E0826822F48012826070470146C7
:1003000000208A6802F004020AB1012000E0002007
:1003100070470146C86C80B27047024600201368DF
:100320000B400BB1012000E00020704730B50246C1
:100330000020002350680F4C20400D790C6844EADF
:1003400005242043506090680B4C2040D1E90254B2
:100350002C434D7944EA450420439060D06A20F450
:1003600070000C7C641EE4B2234340EA0350D06268
:1003700030BD0000FFFEF0FFFDF7F1FFF0B50446D1
:100380000D4600200021092D11DDE068A5F10A06C7
:1003900006EB4607072606FA07F18843A5F10A0689
:1003A00006EB460603FA06F10843E0600CE020691C
:1003B00005EB4507072606FA07F1884305EB4506D6
:1003C00003FA06F108432061072A0FDA606B561E14
:1003D00006EB86071F2606FA07F18843561E06EB32
:1003E000860605FA06F10843606322E00D2A0FDA5B
:1003F000206BD61F06EB86071F2606FA07F18843F7
:10040000D61F06EB860605FA06F10843206310E0C6
:10041000E06AA2F10D0606EB86071F2606FA07F131
:100420008843A2F10D0606EB860605FA06F108439D
:10043000E062F0BD21B1826842F4A002826003E074
:10044000826822F4A00282607047816841F0040152
:100450008160704770B500F0E3FA13480068134AF2
:10046000B0FBF2F1481EB0F1807F00D31BE0481EC4
:100470004FF0E022506150170F22002807DA1307CF
:100480001D0E0B4B00F00F04241F1D5503E0130736
:100490001C0E084B1C5400BF00204FF0E02290615E
:1004A0000720106100BF70BD0800002040420F000F
:1004B00018ED00E000E400E000B5024603E04FF470
:1004C0007A7000F005F8101EA2F10102F7D100BD0C
:1004D0000349086000BF024909680029FBD1704741
:1004E0000400002008B50121084600F009FA0121A6
:1004F000082000F005FA4EF2F000ADF800001020E0
:100500008DF8030002208DF8020069461C4800F0B7
:100510003BF80121042000F0F3F90120ADF80000C0
:1005200000208DF803006946164800F02DF80420DD
:10053000ADF8000002208DF8020048208DF803007D
:100540006946104800F020F80220ADF800001020A5
:100550008DF8030002208DF802006946094800F07A
:1005600013F80820ADF8000010208DF803000220D9
:100570008DF802006946034800F006F808BD000047
:10058000000C0140000801402DE9F0410246002521
:100590000026002000230024002791F803C00CF05F
:1005A0000F0591F803C00CF0100CBCF1000F03D044
:1005B00091F802C04CEA050591F800C0BCF1000FAB
:1005C00031D0146800202BE04FF0010C0CFA00F33E
:1005D000B1F800C00CEA03069E4220D183004FF020
:1005E0000F0C0CFA03F7BC4305FA03FC4CEA0404B5
:1005F00091F803C0BCF1280F06D14FF0010C0CFAA2
:1006000000FCC2F814C00AE091F803C0BCF1480F26
:1006100005D14FF0010C0CFA00FCC2F810C0401CD0
:100620000828D1D31460B1F800C0BCF1FF0F34DD4D
:10063000546800202EE000F1080C4FF0010808FA81
:100640000CF3B1F800C00CEA03069E4221D18300EE
:100650004FF00F0C0CFA03F7BC4305FA03FC4CEA0D
:10066000040491F803C0BCF1280F05D100F1080C77
:1006700008FA0CF8C2F8148091F803C0BCF1480FD6
:1006800007D100F1080C4FF0010808FA0CF8C2F885
:100690001080401C0828CED35460BDE8F0810000D3
:1006A000F0B50A46002300240021002500F0004692
:1006B000B6F1004F02D11D4EF16901E01B4E716889
:1006C000C0F3034583B200F44016B6F5401F08D1CD
:1006D00021F07061154E766826F07066134F7E60CB
:1006E00012E000F48016B6F5801F06D1032606FA44
:1006F00005F4A14341F0706106E0460D360103FAAE
:1007000006F6B14341F0706122B1460D360103FA9D
:1007100006F6314300F00046B6F1004F02D1034E19
:10072000F16101E0014E7160F0BD00000000014088
:100730000146886880B27047416170470161704727
:100740000AB1016100E04161704710B5002101204C
:1007500000F0BAF80520FFF7AFFE10BD10B54FF45A
:1007600000510748FFF7EAFF0320FFF7B1FE4FF4FF
:1007700000510348FFF7E0FF3220FFF7A9FE10BD4C
:10078000000C014070B504460E461EB904F180000D
:10079000C5B202E004F1C000C5B20120FFF78CFE33
:1007A0000021284600F090F80520FFF785FE70BD77
:1007B00010B5002000F06AF81420FFF77DFE4FF41A
:1007C00000411648FFF7B8FF4FF480411348FFF788
:1007D000B3FF4FF400511148FFF7AEFF032000F0C4
:1007E00055F8FFF7BBFF0120FFF772FE022000F073
:1007F0004DF8FFF7B3FF0520FFF76AFE0021282020
:1008000000F062F800210C2000F05EF8FFF79DFF79
:100810000021062000F058F810BD0000000C014037
:10082000F0B595B006460D4600240AE00A20B6FB56
:10083000F0F100FB1167B6FBF0F601A80755601C4C
:10084000C4B2AC42F2DB00240AE0691E091B01AA13
:10085000515C3031C8B2012100F036F8601CC4B2DE
:10086000AC42F2DB15B0F0BD10B5044601212046C4
:1008700000F02AF810BD10B5044603E02078FFF719
:10088000F3FF641C20780028F8D110BD10B5044691
:1008900004F0010210210B48FFF752FFC4F340029D
:1008A00020210848FFF74CFFC4F38002402105488F
:1008B000FFF746FFC4F3C00280210248FFF740FF64
:1008C00010BD0000000C014070B504460D462DB966
:1008D0004FF400410948FFF72FFF04E04FF40041B7
:1008E0000648FFF72BFF2011FFF7D0FFFFF736FF79
:1008F0002046FFF7CBFFFFF731FF70BD000C014032
:1009000029B1064A92690243044B9A6104E0034A02
:1009100092698243014B9A617047000000100240C7
:1009200010B500F001F810BD0CB50020019000904A
:100930003348006840F480303149086000BF3048D7
:10094000006800F4003000900198401C019000986D
:1009500018B90198B0F5A06FF1D12948006800F4EA
:10096000003010B10120009001E0002000900098BC
:10097000012843D12348006840F010002149086055
:100980000846006820F0070008600846006840F04C
:10099000020008601A4840681949486008464068E3
:1009A00048600846406840F48060486008464068F7
:1009B00020F47C1048600846406840F4E810486025
:1009C0000846006840F08070086000BF0C4800686E
:1009D00000F000700028F9D00948406820F00300BA
:1009E000074948600846406840F00200486000BF80
:1009F0000348406800F00C000828F9D10CBD000045
:100A000000100240002002400448006820B1034862
:100A10000068401E01490860704700000400002083
:100A200010B5002100200022214B5B6803F00C016F
:100A300021B1042906D0082928D107E01D4B1E4CFE
:100A4000236027E01B4B1C4C236023E0184B5B68A2
:100A500003F47010164B5B6803F48032022303EB3F
:100A6000904022B9154B4343134C23600DE0104BCB
:100A70005B6803F4003323B1104B43430E4C2360F7
:100A800003E00C4B43430C4C236003E0094B0A4C3E
:100A9000236000BF00BF064B5B68C3F30313084C21
:100AA000E15C054B1B68CB40034C236010BD00008C
:100AB0000010024000127A000800002000093D00EA
:100AC0000C00002010B51348006840F001001149E7
:100AD000086008464068104908400E4948600846CA
:100AE00000680E4908400B4908600846006820F479
:100AF000802008600846406820F4FE0048604FF4FB
:100B00001F008860FFF70CFF4FF000600449086089
:100B100010BD0000001002400000FFF8FFFFF6FECD
:100B200008ED00E0FFF796FCFFF7DCFC01212F4801
:100B3000FFF7B6FDFFF73CFEFFF7A8FBFFF705FE4A
:100B400000210846FFF71EFE29A0FFF794FE4BE0A8
:100B5000FFF778FB2A4908800846008800F0E1F991
:100B600080464FF06632274B00F0EEF90646002231
:100B7000254B00F0E9F904460022244B00F04CF824
:100B8000824600F0A1F9224908700846007823281F
:100B900004DD02211F48FFF7D1FD03E002211D48BB
:100BA000FFF7CAFD1B48FFF7C3FD00F0040020B9A2
:100BB00008211848FFF7C0FD03E008211548FFF79A
:100BC000BDFD01210020FFF7DDFD02211048007866
:100BD000FFF726FE01210220FFF7D4FDDF20FFF7FB
:100BE00043FE4320FFF740FEB2E700000002300062
:100BF00047494120545249204C4D333500000000F4
:100C00000000002066660A400000594000FEAF4028
:100C100002000020000801402DE9C04130B4DFF897
:100C2000A0C23CEA111418BF3CEA131400F0EC8097
:100C300081EA03051CEA111444EAD57418BF1CEAC2
:100C4000131500F0C780A4EB05044FF0004545EAFA
:100C5000C12145EAC32341EA505143EA525304F10A
:100C60007F74994204F500344FEAC0204FEAC22253
:100C700008BF904200F09C804FEA13650FF24016C7
:100C8000765D4FEA134506FB05F7C7F1807706FB53
:100C900007F74FEAD737A7FB03687642C8F58038D5
:100CA000A7FB06CE38BFA8F1010807FB08E64FF006
:100CB000000EA6FB028CE6FB03CEDCF1000CCEF1AD
:100CC000004E38BFAEF1010EA6FB0C584FF00007E6
:100CD0004FF00005E6FB0E87A1FB08C6A0FB07CE80
:100CE00016EB0E0645F10005E1FB076515F1E04E38
:100CF0007EBFA4F580345FEA46066D4116F1800799
:100D000045F100054FEA17274FEA066647EA0567EF
:100D1000A6F1DE46B6F1805F4FEA15251FD93846A9
:100D200024F0010C05EBC471BCF1FE6F01EB0C115A
:100D300002D8F0BCBDE8008124425CBF01F5801EF2
:100D40009EEAC47F02D4F0BCBDE80081244238D4BE
:100D5000F0BCA1F1C041BDE8004100F0EDB94FEA9F
:100D6000D22242EA43524FEAD323A7FB02864FEA3C
:100D7000D02040EA415007FB03661EEA0E0F4FEAFF
:100D8000D12105FB026658BFA6EB0056B6EB005614
:100D90004FEA520E4EEAC37E18EB0E0E56EB530E80
:100DA000BDD518EB02085E417F1C55F10005B6E782
:100DB0004FF480154FF000074FF000064FF0000889
:100DC000ADE7F0BC4FF0000001F1C04101F000417F
:100DD000BDE8008111EA0C1F0CEA131500D00CE0ED
:100DE00013EA0C1F00F025804FF00000F0BC81EAF0
:100DF000030101F00041BDE80081F0BCBDE8004105
:100E000081EA030100F098B9F0BCBDE8004170B57B
:100E100000F044F9097EFC3E00F007B881EA0301C6
:100E20004FF0000001F00041704781EA030100F03B
:100E300083B9F0BCBDE800414FF000002149704784
:100E4000FFFDFBF9F7F5F4F2F0EEEDEBE9E8E6E48F
:100E5000E3E1E0DEDDDBDAD8D7D5D4D3D1D0CFCD16
:100E6000CCCBCAC8C7C6C5C4C2C1C0BFBEBDBCBB4F
:100E7000BAB9B8B7B6B5B4B3B2B1B0AFAEADACAB4A
:100E8000AAA9A8A8A7A6A5A4A3A3A2A1A09F9F9E24
:100E90009D9C9C9B9A9999989797969595949393D6
:100EA000929191908F8F8E8E8D8C8C8B8B8A89896D
:100EB00088888787868585848483838282818180F0
:100EC0000000FF070000F87F4FEA1153A3F580638D
:100ED000D3F11E03A8BFD3F1200C08DB4FF0004272
:100EE00042EAC12252EA505232FA03F070470942F4
:100EF0000BD4102BC4BF0020704703F5787CBCF1E5
:100F0000FF3F05D04FF0FF3070474FF000007047B3
:100F100070B500F0C3F800BF4992248000207047EC
:100F2000F0E7B0FA80F310FA03F10AD0C3F11D0321
:100F300003F580634FEA41504FEA035202EBD1219F
:100F400070474FF000007047DFF848C170B51CEAE9
:100F5000111E1EBF1CEA13159EEA0C0F95EA0C0F1A
:100F600000F06F8081EA030423EA4C134EEAD47E3A
:100F700021EA4C1141F4801143F48013AE44A1FBEB
:100F8000024CA0FB0365AEF17F7E361955EB0C05D4
:100F9000A1FB034C4CF10003A0FB021C16EB0C065A
:100FA000654153F10003094218BF46F0010613F4EE
:100FB000007F0BD14FEA03314FEA0530340341EA99
:100FC000155140EA16506FF003020AE04FEAC321C0
:100FD0004FEAC520F40241EA555140EA56506FF0FD
:100FE000020202EB2E4201EB025585EACE710AD0D5
:100FF0005FEA440C18BF24F0004450F1000041F1B6
:10100000000120EAD47040F2FE7C624500D270BD3F
:10101000A84214BF4FF080444FF04044002E08BF58
:101020000024BEF1806FA8BFA1F1C041BDE87040AF
:1010300080F282804FF0000001F1C04101F00041D8
:1010400070479EEA0C0F0CEA131518BF95EA0C0FB7
:1010500006D04FF0000081EA030E0EF0004170BD93
:1010600000F01CF88900013E00F007B800F009B854
:101070004FEA430C5FEA5C5C08D081EA030100F0B0
:101080005BB84FEA410C5FEA5C5CF6D14FF00000C0
:10109000014970470000FF070000F87F0EF1020EC3
:1010A0002EF0030E5EF8046B364205D4012A43EBA2
:1010B000030515F5001F12D8012841EB010C1CF5A2
:1010C000001F0CD80ED14FEAD17C15F5001F0CEB98
:1010D0004C0C0CF1020C08BF4CEBD37C04E04FF03D
:1010E000080C01E04FEAD37C0CEB4C0526FA05F620
:1010F00006F00706B6F1040C06D20EEB860CBDE82E
:1011000070404CF0010C6047DFE80CF0090B020264
:101110004FF000414FF00000A1F5002170BD1946CD
:101120001046012851EB010418BFD4F5001484BF08
:10113000002001F0004170BD0808A0F500114FEA41
:101140003101704764110008000000201C000000FD
:1011500028010008801100081C000020640600001F
:1011600044010008000000000000000000A24A0442
:101170000000000000000000010203040607080947
:04000005080000ED02
:00000001FF
